:100000000C94AE020C94F5020C94F5020C944D0E77
:100010000C94F5020C94F5020C94F5020C94F50284
:100020000C94F5020C94F5020C945D210C94312291
:100030000C94FD1A0C94F5020C94F5020C94F50244
:100040000C94F5020C94F5020C94F5020C94F50254
:100050000C94F5020C94541B0C94F5020C94F502CC
:100060000C94F5020C94F5020C94F5020C94F50234
:100070000C94F5020C94F5020C94F5020C94F50224
:100080000C94F5020C94F5020C94F5020C94F50214
:100090000C94F5020C94F5020C94F5020C94F50204
:1000A0000C94F5020C94F5020C94F50229001E0044
:1000B0001F002000210022000000000000002B0093
:1000C00014001A00080015001700000000000000CE
:1000D000390004001600070009000A0000000000B3
:1000E0000000E1001D001B000600190005000000D3
:1000F00000000000E000E300E2002C002C00E10022
:100100000000000000002300240025002600270036
:100110002D002E002A002A001C0018000C001200DE
:1001200013002F003000310049000B000D000E00BD
:100130000F0033003400280028004C00110010008C
:10014000360037003800E50052004E004B002C000E
:100150002C00E600E70001510000500051004F0064
:1001600001003A003B003C003D003E000000000062
:100170000000010001000100010001000100000079
:100180000000000001000100010001000100010069
:10019000000000000000010001000100010001005A
:1001A000010000000000000001000100010001004A
:1001B000010001000000000000003F00400041007D
:1001C0004200430044004500780047000100010060
:1001D00001000100010001000100010048000100D0
:1001E00001000100010001000100010001004600C2
:1001F00001000100010001000100010001004D00AB
:100200004A0001000100010001000100000001009E
:100210000100010001003A003B003C003D003E00AF
:1002200000000000000001000100010001000100C9
:1002300001000000000000000100010001000100B9
:1002400001000100000000000000010001000100A9
:100250000100010001000000000000000100010099
:1002600001000100010001000000000000003F004B
:100270004000410042004300440045007800470030
:100280000100010001000100010001000100010066
:10029000480001000100010001000100010001000F
:1002A0000100460001000100010001000100010001
:1002B00001004D004A0001000100010001000100A1
:1002C000000001000100010001003A003B003C0079
:1002D0003D003E00000000000000010001000100A0
:1002E0000100010001000000000000000100010009
:1002F00001000100010001000000000000000100F9
:1003000001000100010001000100000000000000E8
:1003100001000100010001000100010000000000D7
:1003200000003F00400041004200430044004500FF
:1003300078004700010001000100010001000100F8
:10034000010001004800010001000100010001005E
:100350000100010001004600010001000100010050
:100360000100010001004D004A00010001000100F0
:100370000100010000000100010001000000000078
:10038000000000002A2B28000000000000000000F0
:100390000000000000000029000000002C1E342096
:1003A000212224342627252E362D3738271E1F20BC
:1003B0002122232425263333362E37381F04050601
:1003C0000708090A0B0C0D0E0F1011121314151645
:1003D0001718191A1B1C1D2F3130232D3504050643
:1003E0000708090A0B0C0D0E0F1011121314151625
:1003F0001718191A1B1C1D2F3130354C0000000036
:1004000000000000000000000000000000000000EC
:100410007E0F00D4FFFFFFC7000000780403300008
:100420000000120361006A00690073006100690046
:100430003700340000001E03530061006C006900A7
:10044000630079006C00690063005F004100630095
:100450006900640000000403090409025B00030151
:1004600000A0FA09040000010301010009211101A3
:1004700000012240000705810308000A0904010069
:1004800002030000000921110100012222000705DA
:100490008203200001070503032000010904020074
:1004A00001030000000921110100012232000705AB
:1004B000840320000A1201100100000008D804542F
:1004C000EB0100010203010660FF0961A10109625D
:1004D000150026FF00952075088102096315002686
:1004E000FF00952075089102C005010980A10185D2
:1004F0000319012AB700150126B70095017510816F
:1005000000C0050C0901A101850419012AA00215EA
:100510000126A002950175108100C005010906A100
:1005200001050719E029E7150025019508750181E6
:10053000029501750881010507190029FF1500269C
:10054000FF00950675088100050819012905950524
:1005500075019102950175039101C00011241FBE20
:10056000CFEFDAE0DEBFCDBF04B603FE27C0809137
:10057000A0029091A102A091A202B091A3028730A3
:10058000904BA740B04BD1F41092A0021092A10260
:100590001092A2021092A30214BE84B7877F84BF78
:1005A0000FB6F894A89580916000886180936000F0
:1005B000109260000FBEE0E0F8E3099511E0A0E0C2
:1005C000B1E0EEEDF8E402C005900D92AA39B10752
:1005D000D9F722E0AAE9B1E001C01D92A03AB20722
:1005E000E1F70E94131E0C9432240C94000008952D
:1005F00081E0089581E008950C94FA0208950C9426
:10060000FE021F93CF93DF9300D000D00F92CDB79F
:10061000DEB749835A836B833091CB0189819A81FC
:1006200031111DC06623B9F02223A9F00E9467187A
:10063000182F682F89819A810E94131869817A8105
:10064000812F0F900F900F900F900F90DF91CF910F
:100650001F910C94D70A0E943F18182FEFCF0E94C9
:10066000671869817A81EDCFFC01262F4081518185
:100670006281738184810C940103CF93DF93EC0139
:1006800060E00E943403BE01DF91CF910C94FF0221
:10069000FF920F931F93CF93DF93E82FF0E0E4587E
:1006A000FC4FF490C82FC695C695C695D0E0FE01C4
:1006B000E45FFB4F0491877010E0082E02C015958F
:1006C00007950A94E2F701701127C450DC4FFE0130
:1006D000C491D0E002C0D595C7958A95E2F7C17064
:1006E000DD270115110519F081EE0E9433102097C6
:1006F00019F086EE0E9433108F2D0E941111CD2B20
:1007000019F086EE0E94C210012B41F081EEDF91BC
:10071000CF911F910F91FF900C94C210DF91CF9158
:100720001F910F91FF900895EF92FF920F931F93E7
:10073000CF93DF93EC01162F0AE08881882309F418
:1007400054C0813009F04EC08981813099F47E0116
:1007500022E0E20EF11C8A810E941111E70121962C
:10076000812F815050F3EFE9FFE03197F1F700C09E
:100770000000F7CF823041F47E0182E0E80EF11CE8
:100780008A810E943310EACF833041F47E01E2E097
:10079000EE0EF11C8A810E94C210E0CF843011F06D
:1007A0002196DDCF2A81229690E080E0AE014F5F56
:1007B0005F4F2053330B2A30310548F0019778F210
:1007C000EFE9FFE03197F1F700C00000F7CF089F95
:1007D000B001099F700D1124C901860F971F29814F
:1007E000EA01E4CF0E944803BACFDF91CF911F9175
:1007F0000F91FF90EF90089560E00C9494038F9216
:100800009F92AF92BF92CF92DF92EF92FF920F939F
:100810001F936B017C0181E090E0A0E0B0E04C010F
:100820005D0104C0880C991CAA1CBB1C4A95D2F718
:10083000B501A4014C015D0104C0880C991CAA1CDF
:10084000BB1C2A95D2F7482959296A297B2904C05B
:10085000880F991FAA1FBB1F0A95D2F78A019B0117
:100860000C211D212E213F210417150726073707CC
:1008700089F48C299D29AE29BF29BC01CD011F9186
:100880000F91FF90EF90DF90CF90BF90AF909F902F
:100890008F90089580959095A095B0958C219D217D
:1008A000AE21BF21EACF0F93382F262F609140024F
:1008B000709141028091420290914302042F432F94
:1008C0000E94FF030F910C9451170E948B1B0E94F2
:1008D000B119811102C00E944E1A0C94C5060C94E5
:1008E000C80608950C94710481E008950C94740472
:1008F000CF93C82F0E9472048C2FCF910C94760452
:1009000008950E9491130E9480042FEF84E39CE0DD
:10091000215080409040E1F700C000000C94781B0B
:100920000F931F93CF93DF93EC0161E00E94340398
:100930008C01BE010E940E09882359F1BE01C80135
:100940000E94FC02882329F1BE01C8010E940F0CFD
:100950008823F9F0BE01C8010E94500C8823C9F019
:10096000BE01C8010E94730D882399F08A818823F3
:1009700039F001158CE5180751F00E3D1C4579F052
:10098000CE01DF91CF911F910F910C94F8020E943C
:10099000810480E0DF91CF911F910F9108950E9413
:1009A0004E1AF7CF90E080E008950895FC01EE0F15
:1009B000FF1FE45EFB4F859194910895CF93DF93E1
:1009C0000E94D70A0E94EA05EC01811520E59207F2
:1009D00008F041C0811530E4930708F0B4C0803EB0
:1009E000910518F5803C910508F09DC0883A910565
:1009F00070F4853A910508F08EC081309105F9F0C8
:100A00000097E9F00497D8F4D0E0C0E018C08F3B1D
:100A10009105D0F7C85AD0E0CC0FDD1FCA5EDE4F7B
:100A20000990D881C02DD4640AC08115904258F431
:100A3000C11581E0D80718F4C83ED10528F7CE01CA
:100A4000DF91CF910895C11590E3D90708F071C0E7
:100A5000CE019F706AC0811525E5920758F5811572
:100A600034E5930708F09EC0811542E5940750F4E1
:100A7000C11581E5D80708F469C0DC2FCC27C16F08
:100A8000D06ADDCF982F969596959E0123703327D7
:100A9000C115D34508F077C0C1E0D0E002C0CC0F4B
:100AA000DD1F2A95E2F720E2929FC0011124C82B96
:100AB000D92B67C0C11589E5D807A8F4C11598E5F9
:100AC000D90708F074C0C11526E5D20708F09CCFFD
:100AD0008C2F0E948106C82FD0E0DC2FCC27CC279A
:100AE000DF71D062ACCFC1153AE5D30708F464C01A
:100AF000CE0190568115904208F086CF8D2F8F71D0
:100B00000E94810690E0982F882788279F719C017A
:100B10002C2BE901E6CFC55AD0E0CC5BDE4FC88173
:100B2000D0E0D0648CCF805C91090E94D604EC01A7
:100B300086CFCE019927D3FF03C0EC01D86C7FCFBD
:100B4000EC01D06C7CCFDF70D06A79CFCE01E4E0CD
:100B500096958795EA95E1F783702C2F2695269533
:100B6000237090E2299F90011124382B8C2F8370E1
:100B7000C1E0D0E002C0CC0FDD1F8A95E2F7C22BA6
:100B8000D32BDC685CCFC1E0D0E002C0CC0FDD1F0E
:100B90002A95E2F730E2939FC0011124C82BD92B8C
:100BA000DA684DCFD82FCC27C46FD06A48CFDC2F5E
:100BB000CC27C06FD06A43CF8C2F8F700E948106E4
:100BC00034E0D695C7953A95E1F7CF709C2FEC01AC
:100BD000D06935CF82389105B1F1B0F481339105F8
:100BE00009F475C048F48932910509F469C08A3264
:100BF000910509F473C008958533910509F459C02E
:100C00008933910501F10895833E9105A9F138F4E6
:100C1000803E9105F9F0823E910549F10895863EA6
:100C20009105A9F1873E9105C9F1843E910519F519
:100C30002091920221FF1FC08091910284FD14C077
:100C400087EE90E00895209191022370A1F080EE4C
:100C500090E008952091910220FD47C030919202CA
:100C600030FF09C024FF44C090E080E004C0209120
:100C7000910222FDF7CF08952091910222FD3BC001
:100C80003091920230FDE3CF24FFF5CFEDCF2091DC
:100C9000910223FFF0CF24FDE7CFD2CF2091910224
:100CA00023FD2CC03091920231FFEECF84EE90E014
:100CB00008952091910225FFDECF89E290E008950A
:100CC0002091910225FFD7CF85E390E008952091F0
:100CD000910226FFD0CF8AE290E008952091910200
:100CE00026FFC9CF81E390E0089589E390E008955D
:100CF00083EE90E0089582EE90E0089586EE90E015
:100D000008959091910292FF06C0282F28712830F3
:100D1000F9F4877F846093FF06C0282F287128315B
:100D2000F1F4877E84612091920220FF06C0382F63
:100D300038713830D9F4877F816021FF06C0282FB1
:100D400028712831D1F4877E816194FD877E0895D2
:100D5000282F24712430F9F68B7F8860DCCF282F70
:100D60002471243101F78B7E8861DDCF382F3171FA
:100D7000313019F78E7F8860E0CF282F2171213123
:100D800021F78E7E8861E1CF08950C94C406089502
:100D90000C94C706E82FF0E0EE0FFF1FE958FD4F57
:100DA000808191810895089580EA8A95F1F70895E8
:100DB00008950E946A08809100018091000195E0E9
:100DC000811190E090938C0285E0891B80938B02C7
:100DD000A0E5B1E061E070E08D91E82FE295EF7061
:100DE000F0E041A18F709B0101C0220F8A95EAF7C4
:100DF000922F9095942391A382A1822B82A381E0CC
:100E0000A535B80749F7A7E4B1E061E070E08D913E
:100E1000E82FE295EF70F0E041A18F709B0101C0D7
:100E2000220F8A95EAF7922F9095942391A382A19D
:100E3000822B82A381E0A035B80749F7E3E6F2E010
:100E4000A7E7B2E087E792E0119211921D921D92FE
:100E50008E179F07C9F785E00E940D080E94650460
:100E60000C9474080E944E088823E9F180918B024B
:100E700090E0880F991F89589D4F0E948708811123
:100E80002FC080919A018F5F80939A01863030F154
:100E900080918B0290E0FC01EE0FFF1FE958FD4F9F
:100EA00011821082FC01EE0FFF1FE758FD4F1182E7
:100EB0001082FC01EE0FFF1FE558FD4F11821082DA
:100EC000FC01EE0FFF1FE358FD4F11821082880FC7
:100ED000991FFC01E158FD4F118210820C946F04A0
:100EE00010929A01FBCF80918C0290E0880F991F9D
:100EF00089589D4F0E94A4080C94D8068F929F9207
:100F0000AF92BF92CF92DF92EF92FF920F931F9317
:100F1000CF93DF9390E5C92E91E0D92E23E6E22E00
:100F200022E0F22E10E088248394912CF601819126
:100F30006F01C82FC295CF70D0E099A18F70540176
:100F400001C0AA0C8A95EAF7892F8A2989A38AA168
:100F50000A2D009580238AA30E94D406E7E4F1E0DD
:100F600050E040E030E020E06191A62FA295AF7004
:100F7000B0E090968C9190E06F7002C09595879547
:100F80006A95E2F780FD44C0C401042E02C0880FB8
:100F9000991F0A94E2F7282B392B4F5F5F4F493096
:100FA000510511F789A1082309A38AA1A82AAAA299
:100FB000F701808191812817390769F131832083F6
:100FC00081E0182BF2E0EF0EF11C85E5C81681E0F8
:100FD000D80609F0ABCF60918C0270E0660F771FE6
:100FE00069587D4F212F45E083E692E00E940E086C
:100FF0000E943207812FDF91CF911F910F91FF90B7
:10100000EF90DF90CF90BF90AF909F908F9008951A
:1010100090E080E0C0CF80E0D4CF0895FF920F939E
:101020001F93CF93DF93F82E092F162FD72FC42F9E
:10103000222349F081E080939D010E942D1B909313
:101040009C0180939B0180919D018823A1F0809158
:101050009B0190919C010E94451B069760F0EF2D2B
:10106000F02FA12FBD2F90E080E0D0E08C179D07DE
:1010700044F010929D01DF91CF911F910F91FF904D
:101080000895219131912D933D930196EFCF2698AC
:101090002E9883B186FB882780F9089580919E0160
:1010A000811111C08091D80080618093D8008AE1BD
:1010B0008A95F1F700C09091D900892F817090FF37
:1010C00082E080939E0181E090919E01913009F031
:1010D00080E008950E944708809300010E944E0816
:1010E00081110C947B0808950E944E08811102C062
:1010F0000C948108089561E070E081E091E00C9427
:10110000FE0D61E070E081E091E00C94050ECF935C
:10111000DF93D82FC92F0E949F0E009799F4ED2FCF
:10112000FC2FDC01AA0FBB1FA056BE4F2D913C9196
:101130002193319301968530910599F781E0DF91F4
:10114000CF91089580E0FBCF30E020E0FC01419199
:101150005191CF01F901EE0FFF1FE056FE4F518371
:1011600040832F5F3F4F2530310581F7089582E29C
:1011700090E00E94F023803289F483E290E00E94A4
:10118000F023883059F484E290E00E94F02391E04B
:10119000813009F090E0892F8170089580E0FCCFC4
:1011A000CF93C82F6FEF811160E282E290E00E943E
:1011B000FE236FEFC11168E083E290E00E94FE23FE
:1011C0006FEFC11161E084E290E0CF910C94FE23B7
:1011D00080E00E94D0080C94AB19089585E290E05D
:1011E0000E94F023682F70E090E080E0089585E28F
:1011F00090E00C94FE230E94ED080E94B708811134
:101200000CC060E070E0CB010E94F7080E944F0A1A
:101210000E943B0B81E00C94D0080895CF93FB0112
:10122000C281CC2309F19C0122513F452031310577
:1012300020F582510E944B0BC0E08C2FCF91089576
:1012400081E00E94771743E062E081E00E9453044E
:10125000F3CF81E00E94981743E062E081E00E94B2
:101260005304EBCF82E0F6CF8031FFE59F0789F38F
:1012700081319F45B9F3C1E0E0CF8031EFE59E07B2
:10128000F9F281319F45C9F682E0DBCF2FEFFC01F7
:1012900020830895EF92FF920F931F93CF93DF93D4
:1012A000EC01062FE881E150E33108F05EC0F0E088
:1012B000EC5CFB4D0C94E323198289E08A83602F58
:1012C000CE01DF91CF911F910F91FF90EF900C9481
:1012D000071D8981823069F0833071F08130D9F443
:1012E0000E94391B0E94E9236A837B838C839D8340
:1012F000E6CF0E94EE08F6CF7E0110E0812F0E941B
:10130000CA06F701928383831F5FF2E0EF0EF11CA0
:101310001A30A1F7D4CF602FCE010E944609CFCF5B
:1013200089818230C1F76A817B818C819D810E9495
:10133000E9230E94F708C3CF4B816A8189810E940B
:10134000210A9827892798279D838C83B8CF2C81E1
:101350003D813227232732274B816A8189810E9470
:101360003A0AADCF0E944F0AAACF8FEF8883A7CF4A
:101370000E94E40A8983A3CF0E94E60A982789275E
:1013800098279A8389839BCF6B8170E089819A81AA
:10139000AE014C5F5F4F9827892798270E94E90A82
:1013A0008ECF6B8170E089819A81AE014C5F5F4F77
:1013B0009827892798270E94100B81CF0E943B0B0A
:1013C0007ECF0E940F0AD6CF6B8170E089819A810F
:1013D000AE014C5F5F4F9827892798270E94870AA4
:1013E0006ECF6B8170E089819A81AE014C5F5F4F57
:1013F0009827892798270E94AD0A61CF0E94E808A4
:101400005ECF0E94071D2FEF81EE94E021508040B7
:101410009040E1F700C000000E94781B50CF84E0AC
:10142000089550E0440F551F92E1699F400D511DF2
:10143000112494EB899F400D511D1124CA018696F9
:1014400008950F931F93CF93DF930E94110A8C018D
:101450000E94F023C82FD0E0DC2FCC27C8010196D2
:101460000E94F0239E01282BC901DF91CF911F918B
:101470000F9108950F931F93CF93DF93122F032F94
:101480000E94110AEC01602F0E94FE23612FCE0101
:101490000196DF91CF911F910F910C94FE23AF9293
:1014A000BF92CF92DF92EF92FF921F93CF93DF9381
:1014B0008CEAC82E80E0D82ED0E07601C0E014C0BF
:1014C000F50125913491412F6C2F8D2F0E943A0AFE
:1014D00082E0A80EB11C1F5F193091F782E1E80E7F
:1014E000F11CCF5FCA3019F0570110E0E9CFDF5F80
:1014F00084EBC80ED11CD43001F7DF91CF911F913E
:10150000FF90EF90DF90CF90BF90AF900895EF9253
:10151000FF920F931F93CF93DF93EC018A017C011D
:10152000E60EF71ECE018696CE15DF0539F4DF9163
:10153000CF911F910F91FF90EF900895C03D22E051
:10154000D20740F40E94F023F80180830F5F1F4F01
:101550002196E8CFF8011082F9CFCF92DF92EF9277
:10156000FF920F931F93CF93DF937C016A018C014D
:10157000060F171FEC01CE018696C017D10749F45C
:10158000DF91CF911F910F91FF90EF90DF90CF905F
:101590000895C03D22E0D20740F4FE01EE19FF0994
:1015A000EC0DFD1D60810E94FE232196E4CF462FA5
:1015B000843038F47A3028F4693018F4672F0C94AA
:1015C000210A90E080E0089580E108958AE091E0AA
:1015D0000895EF92FF920F931F93CF93DF93EC0147
:1015E0008A017C01E60EF71ECE018A509D4FCE1572
:1015F000DF0539F4DF91CF911F910F91FF90EF90AC
:101600000895CA3021E0D20740F40E94F023F80187
:1016100080830F5F1F4F2196E7CFF8011082F9CF2B
:10162000CF92DF92EF92FF920F931F93CF93DF93AE
:101630007C016A018C01060F171FEC01CE018A5054
:101640009D4FC017D10749F4DF91CF911F910F91A2
:10165000FF90EF90DF90CF900895CA3021E0D2073D
:1016600040F4FE01EE19FF09EC0DFD1D60810E94A2
:10167000FE232196E3CFCF93DF93C6EFD2E060E065
:10168000CE010E94FE232196C11584E0D807B9F748
:10169000DF91CF910895DF92EF92FF920F931F9306
:1016A000CF93DF9300D000D0CDB7DEB7F82E8FE018
:1016B0008F1540F08FEF93E00E94F02306EF12E0C9
:1016C0008823C1F00F900F900F900F90DF91CF9172
:1016D0001F910F91FF90EF90DF900895011584E026
:1016E000180781F3C8010E94F023811101C0FA9408
:1016F0000F5F1F4FF110F2CF19821A821B821C82DA
:10170000DD24D39478018FEFE81AF80AC8010E940B
:10171000F02389831A828823A9F29FEF980F9330D0
:1017200078F48A83D9820E5F1F4FC7010E94F0238D
:101730008B83882339F2CE0101960E94FC03E2CF0D
:101740008701F9CF0F931F93CF93DF93C62FD42F29
:10175000022FFC0182818823C9F06093AC010E94B2
:101760002D1B9093AB018093AA0180E28C0F8830EF
:1017700008F050C0C77081E001C0880FCA95EAF731
:10178000DF91CF911F910F910C9424111091AC0116
:10179000161335C08091AA019091AB010E94451BA0
:1017A000843B910560F5C0E2CD0F1D17B9F080E2D2
:1017B000810F883040F4177081E001C0880F1A95BE
:1017C000EAF70E942B11C83048F481E09D2F9770F2
:1017D00001C0880F9A95EAF70E942411802F0E9479
:1017E0001111C830B8F4D77081E001C0880FDA95C4
:1017F000EAF7DF91CF911F910F910C942B1180E2AA
:101800008C0F883038F4C77081E001C0880FCA950A
:10181000EAF7EFCFDF91CF911F910F9108959C01CF
:10182000CB01233F4CE5340731F190F4283DFCE532
:101830003F07E9F0293D4CE5340769F1273D3C4578
:1018400079F426E241EE61EE0E94A20B80E0089559
:10185000253FFCE53F07B9F090F0263F3C45B9F045
:10186000FC0182818823D1F01092AC01089527E217
:1018700045EE65EEE9CF26E241EE60EEE5CF27E2E8
:1018800045EE64EEE1CF26E241EE62EEDDCF27E2E7
:1018900045EE66EED9CF28E241E0EBCF81E0089536
:1018A000CF93DF93EC01FB018281882309F419C1F6
:1018B000C230FCE5DF07C0F1C6319CE5D90730F046
:1018C0009E012A5F3C452930310570F50E94C419FC
:1018D0009093920280939102C031ECE5DE0709F407
:1018E000CFC008F05BC0C8308CE5D80709F4B6C09B
:1018F00088F5C430ECE5DE0709F4A8C0C0F4C230B6
:101900008CE5D80709F49CC0809191028260C330B5
:10191000DC4509F498C080919102909192020E9456
:10192000D2190E94911380E0DF91CF9108958091A8
:1019300091028061C630ECE5DE0709F484C0809135
:1019400091028860C730DC4508F47DC08091910227
:10195000806279C0CC308CE5D80709F489C070F476
:10196000809191028C60CA30ECE5DE0709F46BC00F
:1019700008F478C0809191028E7F65C0CE308CE5EE
:10198000D80709F479C0809191028B7FCF30DC4574
:1019900008F459C0809191028F7E55C0CB3FECE591
:1019A000DE0709F457C030F5C3318CE5D80709F4D8
:1019B0006FC078F4C131ECE5DE0709F465C0C231CF
:1019C000DC4509F0A8CF0E949113809191028F7796
:1019D0003AC0C5318CE5D80709F462C008F476C076
:1019E000809192028160CA3FDC4509F094CF8093D8
:1019F000920291CFCF3FFCE5DF0709F44DC088F498
:101A0000809192028D7FCD3F9CE5D90781F3809133
:101A100092028E7FCE3FDC4550F38091920283602C
:101A2000E6CFC130FDE5DF0709F459C008F444C032
:101A300080E0C230DD4509F06ECF0E94501A6BCFB6
:101A40008091910281608093910265CF8091910293
:101A50008460F9CF809192028260C9CF8091910217
:101A60008064F1CF0E949113809191028068EBCF46
:101A7000809191028D7FE7CF80919102877FE3CFA4
:101A8000809191028F7DDFCF809191028F7BDBCFA0
:101A900080919102837FD7CF809192028C7FA7CFD4
:101AA0008091910282FB992790F921E0922790FB87
:101AB00082F990FB83F9C7CF80919202982F90957D
:101AC00091708E7F892B90FB81F991CF0E949113A9
:101AD00090919102892F97FB87F98058B4CF81E0CC
:101AE000ACCF81E021CFCF93DF93EB0186319C45D2
:101AF00011F50E94FC189A81992399F08A7A91E055
:101B000009F490E09093AD01811109C089E20E942F
:101B1000D7180E94481980E0DF91CF91089585E39E
:101B2000F6CF8091AD01811104C089E20E94DE18D8
:101B3000F0CF85E3FBCF81E0EFCF8EE14A9B02C07F
:101B40008150E1F74A9BFECF08955A9880E28A952A
:101B5000F1F75A9A0895FC013BE03A95F1F798E0C5
:101B600020E080E031E040E14A95F1F7880F4A9BA0
:101B700002C08160232742E04A95F1F7000040E16E
:101B80004A95F1F7915079F790E19A95F1F799B16B
:101B900032E03A95F1F7000040E14A95F1F792FB07
:101BA000992790F992272081920F90830895EF92C0
:101BB000FF920F931F93CF93DF930F92CDB7DEB7B2
:101BC00019828C017C01E60EF11C0E151F0561F4D3
:101BD00081E09981911180E00F90DF91CF911F9169
:101BE0000F91FF90EF9008950E949D0DCE010196F8
:101BF0000E94AB0DF80181938F01E7CF9093AF0165
:101C00008093AE01529A5A9A08959093AF018093AF
:101C1000AE0152985A9AEA9AE9E6F0E080818F7C08
:101C2000808308956150770B91E001C0990F6A9508
:101C3000EAF720E031E0911108C0222391F05A9A8E
:101C400080E28A95F1F75A980895492F482339F090
:101C50005A9A232740E24A95F1F79695ECCF5A9885
:101C6000F9CF5A98EDCFFF920F931F93CF93DF9345
:101C7000EC018C01060F111DC017D10731F4DF9163
:101C8000CF911F910F91FF900895F9900E94A50D9B
:101C900068E08F2D0E94120EEFCF1F920F920FB6A9
:101CA0000F9211242F933F934F935F936F937F93E2
:101CB0008F939F93AF93BF93CF93DF93EF93FF9354
:101CC0005A98529AC091AE01D091AF016D816623AE
:101CD00021F08E819F810E94330E0E94A50D80E12C
:101CE0008A95F1F75A9852985A9A80E18A95F1F7B5
:101CF0006A81662309F18B819C810E94D70DE8815E
:101D0000F981882311F088E001C082E080830E947D
:101D10009D0DFF91EF91DF91CF91BF91AF919F9179
:101D20008F917F916F915F914F913F912F910F9084
:101D30000FBE0F901F901895E881F981E4CFCF93E3
:101D4000DF93C091AE01D091AF01F894529A5A98A6
:101D500085E08A95F1F7000052985A9A80E28A95B8
:101D6000F1F74A9B0CC0529A5A9AE881F98181E0B6
:101D70008083789481E090E0DF91CF9108956D8128
:101D8000662381F08E819F810E94D70D81110AC048
:101D9000529A5A9AE881F98182E08083789482E0AD
:101DA00090E0EACF0E949D0D80E28A95F1F75A9863
:101DB000529A80E18A95F1F76A81662321F08B813E
:101DC0009C810E94330E0E94A50DE881F98110824A
:101DD000789490E080E0D0CF9093B5018093B401E7
:101DE0000895E091B401F091B501309721F0019090
:101DF000F081E02D099480E00895E091B401F09124
:101E0000B501309721F00280F381E02D0994089507
:101E10002091B2013091B3012817390771F09093E6
:101E2000B3018093B201E091B401F091B501309714
:101E300021F00680F781E02D099408952091B001EA
:101E40003091B1012817390771F09093B101809357
:101E5000B001E091B401F091B501309721F0008418
:101E6000F185E02D0994089585B7806885BF85B711
:101E7000806885BF0895089508950C943B0F0895D8
:101E80000C943F0F0E94340F0E943C0F0C943D0FA6
:101E90000C944E080E94241B0E94D9060E94FB0845
:101EA0000E949F1B0C94400F7F928F929F92AF9243
:101EB000BF92CF92DF92EF92FF920F931F93CF9337
:101EC000DF93CDB7DEB72A970FB6F894DEBF0FBE0B
:101ED000CDBF0E947E070E94480F882309F46FC07F
:101EE00047EBA42E41E0B42E10E000E0702E802FCE
:101EF0000E94CA066C01F501819091905F018816DD
:101F0000990609F456C08091550281FD0E94D306BE
:101F100080E0EE24E394F12C8C249D2494012E2166
:101F20003F21232B09F43FC08E837F82CE20DF2008
:101F300081E0CD2809F480E088870E942D1B816014
:101F4000782F9A8789874E815F8168858A850E946C
:101F50000410000F111FF801E954FE4F8081918198
:101F6000E826F926F182E0820E94F10E9091B601F6
:101F70008917B1F10E94F10E8093B6012A960FB62F
:101F8000F894DEBF0FBECDBFDF91CF911F910F91AF
:101F9000FF90EF90DF90CF90BF90AF909F908F9089
:101FA0007F900C9478048F5FEE0CFF1C893009F051
:101FB000B5CF0F5F1F4F0A30110509F097CF8FEF94
:101FC00089838A831B820E942D1B8160782F9D83C9
:101FD0008C8349815A816B818D810E940410C4CF0A
:101FE0002A960FB6F894DEBF0FBECDBFDF91CF911A
:101FF0001F910F91FF90EF90DF90CF90BF90AF9027
:102000009F908F907F900895CF93DF93CDB7DEB7E9
:102010002B970FB6F894DEBF0FBECDBF4F83588706
:1020200069877A878B871E821D8285E0FE0137963D
:10203000DE01119601900D928A95E1F749815A814E
:102040006B817C818D819E812B960FB6F894DEBFCB
:102050000FBECDBFDF91CF910C94F515FC018081AF
:1020600091810C94A918CF93C82F882309F488C0B4
:102070008238C1F40E94F10E81FD82C089E30E9482
:10208000D7180E9448192FEF81EE94E0215080402C
:102090009040E1F700C0000089E30E94DE18CF9174
:1020A0000C9448198338A1F40E94F10E80FD68C099
:1020B00083E50E94D7180E9448192FEF81EE94E023
:1020C000215080409040E1F700C0000083E5E5CF5B
:1020D0008438A1F40E94F10E82FD52C087E40E9470
:1020E000D7180E9448192FEF81EE94E021508040CC
:1020F0009040E1F700C0000087E4CFCF8CEF8C0F59
:10210000813AB8F48C2F0E94511C811139C06C2F78
:102110008091090190910A010E94671A882329F091
:102120008C2F0E94DE180E9448198C2F0E94D7180D
:10213000B6CF80E28C0F883048F4C77081E001C0D0
:10214000880FCA95EAF70E94FF18A9CFEBE5EC0FBC
:10215000E33040F4F0E0E857FE4F808190E0CF910B
:102160000C94080FC85AC73158F4EC2FF0E0EE0F6A
:10217000FF1FE65AFE4F80819181CF910C941E0F74
:10218000CF910895882309F44BC0823871F40E94DE
:10219000F10E81FF45C089E30E94D7180E944819BB
:1021A00089E30E94DE180C944819833859F40E9480
:1021B000F10E80FF35C083E50E94D7180E944819B0
:1021C00083E5EFCF843859F40E94F10E82FF28C0D6
:1021D00087E40E94D7180E94481987E4E2CF9CEF59
:1021E000980F913AF0F290E2980F983050F487707F
:1021F00091E001C0990F8A95EAF7892F0E9405198D
:10220000D2CF9BE5980F933020F490E080E00C94BF
:10221000080F885A873120F490E080E00C941E0F5C
:102220000895CF93C82F0E943310C93349F42FEF7C
:1022300087EE93E0215080409040E1F700C000001D
:102240008C2FCF910C94C210882321F00E94FF188C
:102250000C9448190895882321F00E9405190C94C4
:1022600048190895BF92CF92DF92EF92FF920F9399
:102270001F93CF93DF936C01D62FC72FFC010581ED
:1022800002950F70128111110E941C190E94F518FD
:10229000E82E882391F01123D1F08C2F807F803499
:1022A00021F080E28D0F883090F082E00E94931937
:1022B0000E94F51891E0E82EE926BC2EB2949FE02A
:1022C000B922EB2DF0E0E95BFB4D0C94E323E12C0C
:1022D000F4CF0C2F0F70C07F11F00295007F1123F7
:1022E000A9F0002359F080E28D0F883010F0D11151
:1022F00009C0802F0E94FF180E9448198D2F0E944C
:10230000331014C0802F0E940F19F6CF8D2F0E941A
:10231000C210002359F080E28D0F883010F0D111E7
:102320002CC0802F0E9405190E9448192B2D28507F
:10233000330B2430310520F40E94F10E0E94780402
:10234000EE2009F493C10E94F11880FD8FC1F601BF
:1023500012820E94EB180E947717C6010E94571341
:102360000E94EB18DF91CF911F910F91FF90EF909A
:10237000DF90CF90BF900C949817802F0E94151972
:10238000D3CFFC2FFF70FF2EC07FC03219F0F29424
:1023900080EFF822DD2369F0D13049F1112391F16A
:1023A000002351F1F601858180FFA8CF8F708583CE
:1023B00023C0112381F0011106C00E942F198F291B
:1023C0000E942411B3CF0130C1F70E942F198F2929
:1023D0000E943519ABCF011106C00E943E198F2D06
:1023E0000E942B11A3CF013009F4A0CFF6CF112307
:1023F00029F0063008F09ACF8F2DE2CF053008F093
:1024000095CFEDCF002359F3D93349F4FFEF27EEF1
:1024100033E0F15020403040E1F700C000008D2F44
:102420000E94C21083CF8C2F86958695837069F0A9
:10243000813009F07BCF8D2F9C2F9370111102C03A
:1024400090E080E00E941E0F71CF8D2F9C2F937023
:10245000111102C090E080E00E94080F67CF8C2F1E
:10246000837009F041C0111161CF4D2F42954695FF
:102470004770440F440F0D2F0F7010E030E020E044
:10248000042E04C0000F111F221F331F0A94D2F71D
:1024900060E070E0CB01D4FF0FC06FE070E080E03F
:1024A00090E004C0660F771F881F991F4A95D2F7E6
:1024B0006095709580959095C695C695C370602B74
:1024C000712B822B932BC23049F058F4C13019F094
:1024D0000E942B172BCF0E94191728CF0E943D175F
:1024E00025CF0E94171722CF8695112311F08C2F2C
:1024F0008170882309F41ACF4D2F42954695477075
:10250000440F440F0D2F0F7010E030E020E0042E38
:1025100004C0000F111F221F331F0A94D2F760E07E
:1025200070E0CB01D4FF0FC06FE070E080E090E07E
:1025300004C0660F771F881F991F4A95D2F76095D0
:10254000709580959095C695C695C370602B712B3C
:10255000822B932BC23049F058F4C13019F00E94FD
:10256000EE17E4CE0E94DC17E1CE0E940018DECE0A
:102570000E945117DBCECF70112329F08C2F0E94BF
:1025800077178D2F1DCF8D2F0E942B118C2F0E941E
:102590009817CCCED23F89F160F4D03FC9F0D13F3B
:1025A00029F1112309F442C00111A8CE8C2F8F719B
:1025B00021C0D33F39F1D43FA1F7112369F1CF7185
:1025C0008C2F0E94771763E08C2F0E947E19AECE6D
:1025D000112341F0053008F0A9CE8C2F8F710E9495
:1025E000BB17A4CE063008F0A1CEF7CF8C2F8F7189
:1025F000112369F20E94771799CE8C2F8F711123C6
:10260000C9F3C5CF112329F08C2F8F710E94621757
:102610008DCE0E945D178ACE81E00E949319023010
:1026200008F484CE82E00E94931980CE002359F0F2
:10263000D93309F0F4CE8FEF97EEE3E0815090406C
:10264000E040E1F7EACE8C2F8F71A1CF4C2F4F7075
:102650006D2FC6010E94D2040E948F1667CE4C2FA8
:102660004F706D2FC6010E94D50460CEDF91CF91CF
:102670001F910F91FF90EF90DF90CF90BF90089542
:102680000F931F93CF93DF93EC01688179818A8147
:102690000E94B3188C010E9412180E941617B801EC
:1026A000CE01DF91CF911F910F910C943211CF93F6
:1026B000DF93EC018B819C81892B29F088819981A2
:1026C00089238F3F59F4DF91CF910895CE010E9465
:1026D0004013CE01DF91CF910C943D03CE010E94B7
:1026E00090048111F3CF0E94F518882361F38A8149
:1026F000882349F382E0DF91CF910C9493190E94D3
:102700001C190E942C190E94481990E080E00E9438
:10271000080F90E080E00C941E0F0E94E5180C94C6
:102720007F130E940C190C948D13E92FE295EF7022
:10273000E250EE3070F4F0E0E95AFB4D0C94E323E4
:10274000803F19F020F4883E20F481E00895843F12
:10275000E1F380E00895883EC0F3813FD1F7F5CFE3
:1027600093FB882780F908950E94A9180C9495136B
:10277000CF93DF9300D000D00F92CDB7DEB70F908C
:102780000F900F900F900F90DF91CF910895CF93FE
:10279000DF9300D000D000D0CDB7DEB726960FB6BD
:1027A000F894DEBF0FBECDBFDF91CF9108951F9388
:1027B000CF93DF93C091CC0116E08091CD018C13B3
:1027C00004C0DF91CF911F910895D0E01C9FF001CC
:1027D0001D9FF00D1124E253FE4F40815181628113
:1027E0007381848195810E94C7132196C770E5CFBC
:1027F0004091FE015091FF01609100027091010231
:1028000080910202909103020C94C7131F93CF93FF
:10281000DF9380910302807FA9F4809100028823D6
:1028200089F08091CC01C091CD016091FE01709141
:10283000FF01A0910102B0910202D62FD72316E02A
:10284000C81304C0DF91CF911F91089590E01097B5
:1028500011F0DF3F19F401968770F2CF189F9001B5
:10286000199F300D1124F901E253FE4F41814713A6
:10287000F2CF40814613EFCF42814111ECCF43812B
:1028800054814A1B5B0B443B510528F7809103029E
:102890008F70806180930302F901ED52FE4F8081B9
:1028A0008F70806180838EEF91E00E945713DF91DB
:1028B000CF911F910C94D713AF92BF92CF92DF921A
:1028C000EF92FF920F931F93CF93DF93CDB7DEB7B5
:1028D00061970FB6F894DEBF0FBECDBF8C0185E0C7
:1028E000F801DE011D9601900D928A95E1F7F8013D
:1028F00040815181E2808EEFC82E81E0D82E609118
:102900000102709102026115710509F44FC19091A5
:10291000FE012091FF01892F82238F3F09F446C1D8
:10292000A380B480F0900002F501E61BF70BFF20B6
:1029300009F40AC180910302382F307FE43BF1058E
:1029400008F0C0C0311179C0FE2C251323C09413A8
:1029500021C0E1101FC08F708061809303020E942C
:10296000F813C6010E94571380910302F801858372
:102970008F2D61960FB6F894DEBF0FBECDBFDF91ED
:10298000CF911F910F91FF90EF90DF90CF90BF906C
:10299000AF900895AB2829F0842F85238F3F09F04D
:1029A00021C180E0F82FF170DF2E80FF3CC08091C4
:1029B000CC012091CD0136E0821315C04D875E8792
:1029C0008D859E850E94A918292F22952F7022306F
:1029D000F0F0243018F59F70F1F0F8019581907FA8
:1029E000D1F4D12C1EC090E0389FF001399FF00D3A
:1029F0001124E253FE4F6181651306C060816413A8
:102A000003C062816E110FC001968770D5CF9F7091
:102A100011F0882331F3805E883018F3C8010E94DA
:102A20005713FD2CA5CFEE2009F4A2CF809103020D
:102A3000816080930302F12C9BCF251314C0941363
:102A400012C0E11010C0F8018583C8010E9457131D
:102A500086E0F801AEEFB1E001900D928A95E1F7C2
:102A60000E94F81385CF4D875E878D859E850E94D5
:102A7000B413882319F1EE2009F18091030280320A
:102A800070F02091FE013091FF0138872F83198665
:102A9000BB86AA868C87CE0107960E94571386E0D4
:102AA000F801AEEFB1E001900D928A95E1F70E9436
:102AB00006140E94F813FF24F3945ACFC8010E9411
:102AC0005713F9CF311113C07A2DB98AA88A6E2D08
:102AD00089890E94B8138EEF91E00E94571386E017
:102AE000F60111928A95E9F70E94F813A4CF2513F5
:102AF0000FC094130DC0E1100BC0F8018583C8010D
:102B00000E94571386E0F60111928A95E9F730CFBB
:102B10004D875E878D859E850E94B413882371F250
:102B2000EE2061F280910302803208F4B8CF209148
:102B3000FE013091FF013A8329831B82BD82AC8262
:102B40008E83CE010196A9CFE43BF10510F5FE2C52
:102B5000EE2009F4B3CF25130BC0941309C086E00F
:102B6000F801AEEFB1E001900D928A95E1F700CF48
:102B70004D875E878D859E850E94B41381118FCF0E
:102B800080910302816080930302C8010E94571361
:102B9000EFCE7A2DB98AA88A6E2D89890E94B81342
:102BA00086E0F60111928A95E9F75ACFEE2009F4F2
:102BB00085CF4D875E878D859E850E94B413F82E44
:102BC000882309F47BCF86E0F801AEEFB1E00190F5
:102BD0000D928A95E1F78EEF91E00E942E100E94EF
:102BE00006143ECF81E08E25DDCE1F93CF93DF9379
:102BF000CDB7DEB72C970FB6F894DEBF0FBECDBFB2
:102C00004F83588769877A878B879C87CE01079681
:102C10000E945C14882369F08A859B85892B39F092
:102C20004F815885842F85238F3F09F071C016E0AE
:102C30005FC086E0FE013796DE01119601900D928D
:102C40008A95E1F78A859B85892B89F388859F8101
:102C500089238F3F61F32091CD0130E0C9010196B6
:102C6000877099274091CC014817190671F40E948A
:102C700091131092CD011092CC0186E0EEEFF1E0BD
:102C8000DF011D928A95E9F7D2CF96E0929FD0019D
:102C9000939FB00D1124A253BE4FFE0131960190B7
:102CA0000D929A95E1F78093CD010E94D713BFCF83
:102CB000819FC001112482539E4F0E945C1488237F
:102CC000E9F0E091CC011E9FF0011124E253FE4F88
:102CD0004081518162817381848195810E94C713F3
:102CE0008091CC0190E00196877099278093CC0168
:102CF0008091CC019091CD018913DACF2C960FB63B
:102D0000F894DEBF0FBECDBFDF91CF911F91089524
:102D100069857A858B859C850E94C71388CFEF9241
:102D2000FF920F931F93CF93DF938C01892B81F038
:102D3000F12CEE24E394E8012196F8018491843784
:102D400070F4843008F05FC08130B1F08230A1F1BE
:102D5000DF91CF911F910F91FF90EF9008958537EC
:102D600009F44CC008F43DC09CE7980F903780F7F9
:102D70008F770E94C21049C00E5F1F4FFE018491E1
:102D800090E2980F983060F48770FE2D01C0FF0F1D
:102D90008A95EAF78F2F0E941F190E94481902C0D6
:102DA0000E9433108F2D815030F2EFE9FFE0319710
:102DB000F1F700C00000F7CF0E5F1F4FFE018491B6
:102DC00090E2980F983050F48770FE2D01C0FF0FED
:102DD0008A95EAF78F2F0E942519DFCF0E94C21033
:102DE000E1CF0E5F1F4FFE01C491C150D8F28FE9B1
:102DF0009FE00197F1F700C00000F7CF0E5F1F4F73
:102E0000FE01F490CFCF0E9433108E01CBCF0895F6
:102E10000C9407170E9408176093440270934502B0
:102E200080934602909347020C947F1308950C946C
:102E30000A170F931F9300914402109145022091AD
:102E4000460230914702602B712B822B932B1F91EE
:102E50000F910C940A170F931F9300914402109145
:102E6000450220914602309147026023712382235C
:102E700093231F910F910C940A170F931F930091A6
:102E8000440210914502209146023091470260278A
:102E90007127822793271F910F910C940A170C9486
:102EA000F7020E944F176093400270934102809393
:102EB0004202909343020C947F1360E070E0CB01D8
:102EC0000C9451170F931F9341E050E060E070E0C5
:102ED0008A019B0104C0000F111F221F331F8A9516
:102EE000D2F7C901B8011F910F910C9451170F939C
:102EF0001F9341E050E060E070E004C0440F551FB4
:102F0000661F771F8A95D2F7809140029091410207
:102F1000A0914202B09143028A019B01082B192B18
:102F20002A2B3B2BC901B8011F910F910C9451170B
:102F30000F931F9341E050E060E070E004C0440F45
:102F4000551F661F771F8A95D2F7CB01BA0160958E
:102F500070958095909500914002109141022091CA
:102F600042023091430260237123822393231F91F5
:102F70000F910C9451170F931F9341E050E060E0C4
:102F800070E004C0440F551F661F771F8A95D2F763
:102F90008091400290914102A0914202B09143027F
:102FA0008A019B01082719272A273B27C901B80155
:102FB0001F910F910C9451170F931F930091400292
:102FC000109141022091420230914302602B712BFB
:102FD000822B932B1F910F910C9451170F931F93DA
:102FE000009140021091410220914202309143022F
:102FF00060237123822393231F910F910C94511707
:103000000F931F93009140021091410220914202C0
:103010003091430260277127822793271F910F91D8
:103020000C945117089529E0929F800D1124982F38
:10303000977041E001C0440F9A95EAF7869586950E
:10304000869595E0899FF0011124EC5FFD4F90E09B
:1030500080E070E05191DF0111979B01082E02C0C2
:10306000369527950A94E2F7217021952527242388
:1030700025272C9301968530910561F7089529E065
:10308000929F800D1124982F97708695869586952E
:1030900025E0829FF0011124EC5FFD4F50E040E0FD
:1030A00080E0219130E0092E02C0369527950A94E0
:1030B000E2F721703327042E01C0220F0A94EAF7A9
:1030C000822B4F5F5F4F4530510559F70895BF92EE
:1030D000CF92DF92EF92FF920F931F93CF93DF93E4
:1030E0008C01C0904002D0904102E0904202F090EA
:1030F00043028091440290914502A0914602B09112
:103100004702C82AD92AEA2AFB2ACFE1D0E0BC2EFE
:10311000D701C6010C2E04C0B695A7959795879543
:103120000A94D2F780FD0EC0219788F7B12C8B2D21
:10313000DF91CF911F910F91FF90EF90DF90CF9093
:10314000BF900895B8018C2F0E94DE04019761F3AF
:10315000EECFCF93DF93EC010E946718BE01DF91A1
:10316000CF910C94DE041F93CF93DF93EB019091EA
:10317000CB01992331F0CB01DF91CF911F910C94BA
:10318000A918882379F0CB010E946718182F682F9F
:10319000CE010E941318BE01812FDF91CF911F91A4
:1031A0000C94DE04CB010E943F18182FF4CF682F37
:1031B0008091090190910A010C949D1A682F8091C9
:1031C000090190910A010C949F1A80910901909134
:1031D0000A010C94A11A80914802859585958595E0
:1031E00008958091480287700895909148029770E1
:1031F00081E009F480E0089580915402089590914F
:103200005402892B80935402089580959091540222
:103210009823909354020895109254020895909127
:103220005302892B80935302089580959091530205
:103230009823909353020895109253020895909109
:103240005202892B809352020895809590915202E8
:1032500098239093520208951092520208958091FB
:103260004902089508950C943219909149029817D3
:1032700021F0809349020C943319089580914902FA
:10328000882329F01092490280E00C9433190895A4
:10329000E0910901F0910A01809154028083E0914C
:1032A0000901F0910A01808190915302892B80835A
:1032B000E0910901F0910A01808190915202892BDD
:1032C000808390914902992381F0E0910901F09166
:1032D0000A018081892B80838091090190910A01E4
:1032E0000E94551A81110E943E1980910901909106
:1032F0000A010C94FD0E08950C947B1998E0899FA7
:1033000090011124622B609348020E9477178091EC
:1033100048028595859585950C947C1910924802F4
:1033200080E00C947C1990914802809589238093C9
:103330004802282F277071F4282F082E000C330B19
:103340009217130639F08595859585950E949817F3
:103350000C948E1908956FEF7FEF90E080E00C944D
:103360001C2490E080E00E94F82321E08C3E9E4FD8
:1033700009F020E0822F089582E090E00C94F02381
:1033800083E090E00C94F023CF9384E090E00E94DF
:10339000F023C82F81E290E00E94F023982F8C2F19
:1033A000CF910895CF93C92F682F84E090E00E94B9
:1033B000FE236C2F81E290E0CF910C94FE23AB01B1
:1033C000BC018FE090E00C941024AB01BC0183E1C0
:1033D00090E00C94102460E070E0CB010C94E519AF
:1033E00060E070E0CB010E94DF190C94EB196CEEE9
:1033F0007EEF90E080E00E941C2460E082E090E09C
:103400000E94FE2360E083E090E00E94FE23109281
:10341000440210924502109246021092470260E068
:1034200084E090E00E94FE2360E081E290E00E9450
:10343000FE2360E085E090E00E94FE2360E086E0ED
:1034400090E00E94FE236FEF87E090E00E94FE2351
:1034500040E050E0BA0188E090E00E94102460E073
:103460008DE090E00E94FE2340E050E0BA0188E148
:1034700090E00E94102460E087E190E00E94FE232B
:1034800040E050E0BA018CE190E00E94102460E03E
:1034900080E290E00E94FE230C94F0190C94F7193E
:1034A000682F8EE090E00C94FE239C012E5F3F4F2E
:1034B000AC01485F5F4F80E02417350709F4089599
:1034C000F90191919F019923B9F38F5FF5CF66239D
:1034D00049F0FC01329608962191261729F0E81749
:1034E000F907D1F780E0089581E008959C01FC017F
:1034F00032969FEF80E04191461751F09F3F19F4BB
:10350000411101C0982F8F5F8630A9F79F3F09F4C2
:103510000895290F311D97FD3A95F90162830895A9
:10352000FC01329608962191261303C0DF01119702
:103530001C92E817F907B9F708950C94761A0C94C1
:10354000901A029626E0FC0111922A95E9F7089557
:10355000089508950C94A91A0E94AA1A80919702BE
:10356000843049F11092560288E190E020E40FB6D1
:10357000F894A895809360000FBE2093600080E0CF
:103580000E9478040E94AA1A83B7817F846083BF57
:1035900083B7816083BF7894889583B78E7F83BF1C
:1035A0000FB6F894A89580916000886180936000C0
:1035B000109260000FBE08950895CF930E94A81A3C
:1035C0000E947E070E94DC1AC0E08C2F0E94CA066F
:1035D000892B31F4CF5FCA30C1F780E0CF910895D5
:1035E00081E0FCCF08950C94F21A0E9491130E947E
:1035F000F10E0E9478040C94F31A1F921FB61F92CA
:1036000011248F939F93AF93BF93809156028111A2
:1036100013C080918D0290918E02A0918F02B09183
:1036200090024196A11DB11D80938D0290938E0250
:10363000A0938F02B0939002BF91AF919F918F9111
:103640001F901FBE1F90189582E084BD93E095BD2A
:103650009AEF97BD80936E0008952FB7F8948091EC
:103660008D0290918E02A0918F02B09190022FBF97
:1036700008952FB7F89460918D0270918E02809119
:103680008F02909190022FBF08959C014FB7F8943C
:1036900080918D0290918E02A0918F02B091900244
:1036A0004FBF821B930B089578941F921FB61F92F1
:1036B00011248F939F93AF93BF9380918D0290912C
:1036C0008E02A0918F02B09190020196A11DB11DB2
:1036D00080938D0290938E02A0938F02B0939002FC
:1036E000BF91AF919F918F911F901FBE1F90189512
:1036F00087E797E7909301088093000888E19AE0B4
:103700000FB6F894A895809360000FBE9093600068
:10371000FFCF0C94E8080E947E078FE39CE9019795
:10372000F1F700C000000E947E0780E00E94CA06F8
:1037300080FF04C00E94891B0C94781B08950E948E
:10374000B119811102C00E944E1A0E94BC198093C7
:1037500055020E94C41990939202809391020E9494
:10376000C019682F70E090E080E00C9417170F9359
:103770001F9341E050E060E070E08A019B0104C0CB
:10378000000F111F221F331F8A95D2F7C901B801FC
:103790000E9417171F910F910C9491138B3109F40C
:1037A00061C040F58B3071F078F4863009F443C085
:1037B00020F4853059F180E00895873009F444C041
:1037C0008830C9F781E00895803109F459C068F460
:1037D0008E3089F790915502892F8B7F92FF8460FC
:1037E0008093550282FD48C0EDCF863159F389316F
:1037F00049F3E1CF8A32E1F060F48732A9F020F496
:103800008E31C8F28D5111C08932A9F60E9481040F
:10381000D9CF833438F48A33F0F5853329F08833EF
:1038200089F2C9CF833439F680E00E94B71BCACF32
:103830000E944E1AC7CF80915502807F8093550217
:1038400081E080935702089590915502892F8E7FD1
:1038500090FF81608093550280FDB4CF817F80937B
:103860005502B0CF90915502892F8D7F91FF8260D4
:103870008093550281FFA6CF809155028160EFCFE2
:1038800090915502892F877F93FF8860809355021E
:1038900083FDF2CF97CF8953C8CF80E008950C9471
:1038A0004D1CCF93C82F80915702882331F081306F
:1038B00099F01092570280E00DC00E94FC188232ED
:1038C000D1F78C2F0E944D1C811116C08C2F0E94A5
:1038D000CE1B8170CF9108950E94FC18823289F32B
:1038E0008C2F0E944F1C811105C0C43171F038F437
:1038F000CB3079F781E0EDCF81E090E0EACFC932BB
:1039000021F0C833B9F380E0E4CF10925702FBCF27
:103910008091600208950895CF93DF9300D00F92B5
:10392000CDB7DEB790919702943011F589837B83F0
:103930006A839093E9008FEF9091E800815095FDA4
:1039400006C095ED9A95F1F700008111F5CF8091B1
:10395000E80085FF0DC050E040E063E070E0CE017C
:1039600001960E94031F8091E8008E778093E80003
:103970000F900F900F90DF91CF910895CF93DF9329
:10398000EC010E94E61E823011F0843031F4BE0159
:1039900084E0DF91CF910C948C1CDF91CF9108953E
:1039A000BC0183E00C948C1CCF93DF93EC010E944C
:1039B000E61E823011F0843039F581E08093E90011
:1039C0008FEF9091E800815095FD06C095ED9A9596
:1039D000F1F700008111F5CF8091E80085FF14C058
:1039E00050E040E068E070E0CE010E94031F80914B
:1039F000E8008E778093E80088E0FE01A8E5B2E059
:103A000001900D928A95E1F7DF91CF910895CF93C0
:103A1000FC01603221F580919702843001F5C0915C
:103A2000E900CF702091EC00922F917020FD90E87A
:103A3000C92B82E08093E9008091E80080FF0CC0F0
:103A400050E040E060E270E0CF010E94031F8091EF
:103A5000E8008E778093E800CF70C093E900CF91A3
:103A6000089580919602811109C00E94E2200E946F
:103A70003F218091E20084608093E20008951092DB
:103A800096020895089508950C94F51A42E061ECA9
:103A900081E00E945E2042E261EC84E00E945E20B0
:103AA00042E261EC82E00E945E2042E260EC83E050
:103AB0000C945E2080919902833009F461C030F447
:103AC0008130D1F1823009F49DC008958A3009F423
:103AD00089C08B3009F46FC0893009F050C08091E3
:103AE0009802813209F04BC080919C0290919D0216
:103AF000009719F0029709F042C08091E800877F93
:103B00008093E8008091E80082FF35C09091F30037
:103B10008091F200029729F48091F1008B7F81302F
:103B200021F48091F100809360028091E8008B770E
:103B30008093E8000C94922080919802813AF9F4E5
:103B40008091E800877F8093E80080919C029091AB
:103B50009D02892B61F468E088E592E070E00E94A4
:103B6000A11F8091E8008B778093E800089560E0C2
:103B700090E080E0F3CF809197028111C3CF089548
:103B800080919802813AD9F780919C0290919D0290
:103B9000892BA9F78091E800877F8093E8008091C6
:103BA000E80080FFFCCF809115018093F1008091A7
:103BB000E8008E77BDCF80919802813201F7809125
:103BC0009C0290919D02892BD1F68091E800877F1D
:103BD0008093E8000E94922080919A0280931501C0
:103BE0000C94911380919802813249F68091E800FB
:103BF000877F8093E8000E94922080919B028093AF
:103C00006102089580919802813A09F0B8CF8091BD
:103C1000E800877F8093E8008091E80080FFFCCF78
:103C200080916102C2CFCDB7DEB7A0970FB6F894EE
:103C3000DEBF0FBECDBF84B7877F84BF0FB6F894B9
:103C4000A895809160008861809360001092600068
:103C50000FBE80E890E00FB6F894809361009093D7
:103C600061000FBE0E94420F0E94E2200E943F218D
:103C70008091E20084608093E20078940E94C823DF
:103C80000E944A0F8BE091E00E94EC0E13E08091BD
:103C90009702853039F10E94540F80919702843049
:103CA000B1F71093E9008091E80082FFF0CF809196
:103CB000E80090E085FF09C050E040E060E270E07D
:103CC000CE0101960E94521F91E08091E8008B770F
:103CD0008093E8009923D9F260E2CE0101960E9418
:103CE0004A09D5CF0E94AC1A80919502882379F2B7
:103CF0000E94DD1A882359F20E94ED1EC8CF0C9451
:103D0000811E292F33272330310521F168F421301A
:103D1000310509F449C02230310509F44AC090E068
:103D200080E030E020E029C02132310581F12232EB
:103D30003105A9F76330710590F7FB01EE0FFF1F06
:103D4000E257FE4F2081318165577E4FFB01808114
:103D500090E013C099278130910599F0009741F0C8
:103D60008230910589F00397D1F6ECE1F4E002C0CE
:103D7000E6E5F4E0849190E09F01FA01318320832D
:103D80000895E6E3F4E0F6CFE2E2F4E0F3CF633047
:103D9000710528F6660F771FFB01EC56FE4F208158
:103DA000318189E090E0E9CF82E190E025EB34E0D9
:103DB000E4CF8BE590E02AE534E0DFCF80919702F5
:103DC000843011F482E0089581E0089580916202C8
:103DD000811102C00C94DE1E089580E189BD82E14C
:103DE00089BD09B400FEFDCF8091D8008F7D8093FE
:103DF000D8008091E00082608093E0008091E00034
:103E000081FDFCCF0895AF92BF92CF92DF92FF92D7
:103E10000F931F93CF93DF936C01EB018A010E94F4
:103E2000B120F82E811123C00115110539F0F801D8
:103E300080819181C81BD90BC80ED91EB12CA12C31
:103E40002097A9F08091E80085FD22C08091E800CC
:103E50008E778093E80001151105A1F0F8018081AB
:103E60009181A80EB91EB182A08285E0F82E8F2D17
:103E7000DF91CF911F910F91FF90DF90CF90BF9076
:103E8000AF9008950E94B1208823D1F2F82EEFCF91
:103E9000F60181916F018093F1002197FFEFAF1A36
:103EA000BF0ACECFAF92BF92CF92DF92FF920F9315
:103EB0001F93CF93DF936C01EB018A010E94B12025
:103EC000F82E811123C00115110539F0F801808108
:103ED0009181C81BD90BC80ED91EB12CA12C2097DB
:103EE000A9F08091E80085FD22C08091E8008B77E1
:103EF0008093E80001151105A1F0F80180819181FE
:103F0000A80EB91EB182A08285E0F82E8F2DDF9118
:103F1000CF911F910F91FF90DF90CF90BF90AF9006
:103F200008950E94B1208823D1F2F82EEFCF80911E
:103F3000F100F60181936F012197FFEFAF1ABF0ADD
:103F4000CECFFC0180919E0290919F028617970729
:103F5000A0F06115710529F49091E8009E77909387
:103F6000E80090E06115710551F4911108C080914D
:103F7000E80082FF34C080E00895BC01F2CF809158
:103F800097028823C1F18530C1F18091E80083FD5B
:103F900030C08091E80082FDEACF8091E80080FF88
:103FA000E1CF8091F3002091F200382F6115710567
:103FB00019F02830310558F091E02830310509F02A
:103FC00090E02091E8002E772093E800CBCF8191FC
:103FD0008093F100615071092F5F3F4FE7CF8091CF
:103FE0009702882341F0853041F08091E80083FFFB
:103FF000BECF81E0089582E0089583E00895FC013A
:1040000080919E0290919F0286179707A0F06115FC
:10401000710529F48091E8008E778093E80090E0A4
:104020006115710551F4911108C08091E80082FF7B
:1040300035C080E00895BC01F2CF809197028823BB
:10404000C9F18530C9F18091E80083FD31C08091CC
:10405000E80082FDEACF8091E80080FFE1CF809107
:10406000F3002091F200382F6115710519F0283006
:10407000310558F091E02830310509F090E0809149
:10408000E8008E778093E800CBCF84918093F10095
:104090003196615071092F5F3F4FE6CF80919702B3
:1040A000882341F0853041F08091E80083FFBDCF47
:1040B00081E0089582E0089583E00895982F973075
:1040C00028F08F708093E90081E008959093E900D3
:1040D000242F762F50E0981731F07091EC0020914A
:1040E000ED005091F00021FD02C09F5FE8CF3091BC
:1040F000EB003E7F3093EB003091ED003D7F30933D
:10410000ED003091EB0031603093EB007093EC00E8
:104110002093ED005093F0002091EE0027FDE5CFB5
:1041200080E008958091980287FF13C08091E80095
:1041300082FF06C08091E8008B778093E80004C07E
:10414000809197028111F2CF089580919702882380
:10415000D9F38091E80080FFF8CF8091E8008E7756
:10416000ECCF2091E4003091E50095E6A901209183
:10417000EC00822F817020FF06C08091E80080FF54
:1041800006C080E008952091E80022FD1AC08091C9
:104190009702882389F0853089F08091EB0085FDB6
:1041A0000FC02091E4003091E50042175307F9F267
:1041B0009150E1F684E0089582E0089583E0089547
:1041C00081E008950E9450210E945821E0EEF0E025
:1041D000808181608083E8EDF0E080818F7780834B
:1041E00019BCA7EDB0E08C918E7F8C9380818F7E7F
:1041F00080831092960208950F931F93CF93DF93BD
:104200000E9450210E945821C8EDD0E088818F770C
:10421000888388818068888388818F7D888319BCA2
:1042200010929702109293021092950210929402AB
:1042300000EE10E0F80180818B7F808388818160AF
:10424000888342E060E080E00E945E20E1EEF0E0E2
:1042500080818E7F8083E2EEF0E0808181608083C8
:10426000808188608083F80180818E7F808388814F
:1042700080618883DF91CF911F910F910895E8EDC0
:10428000F0E080818F7E8083E7EDF0E080818160C7
:10429000808384E082BF81E0809396020C94FC20AE
:1042A000E8EDF0E080818E7F80831092E200089537
:1042B0001092DA001092E10008951F920F920FB64B
:1042C0000F9211242F933F934F935F936F937F939C
:1042D0008F939F93AF93BF93EF93FF938091E100F0
:1042E00082FF0BC08091E20082FF07C08091E10055
:1042F0008B7F8093E1000E94C7238091DA0080FFCA
:1043000019C08091D80080FF15C08091DA008E7F9F
:104310008093DA008091D90080FF96C080E189BD4A
:1043200082E189BD09B400FEFDCF81E08093970250
:104330000E94311D8091E10080FF19C08091E20050
:1043400080FF15C08091E2008E7F8093E200809113
:10435000E20080618093E2008091D80080628093C7
:10436000D80019BC85E0809397020E94431D80917C
:10437000E10084FF2BC08091E20084FF27C080E130
:1043800089BD82E189BD89B5982F917080FFFBCFEF
:104390008091D8008F7D8093D8008091E1008F7E3E
:1043A0008093E1008091E2008F7E8093E200809113
:1043B000E20081608093E20080919302882309F4F7
:1043C00049C084E0809397020E94441D8091E100DF
:1043D00083FF29C08091E20083FF25C08091E10026
:1043E000877F8093E10082E080939702109293028E
:1043F0008091E1008E7F8093E1008091E2008E7FCA
:104400008093E2008091E20080618093E20042E0CC
:1044100060E080E00E945E208091F00088608093E0
:10442000F0000E94421DFF91EF91BF91AF919F91CB
:104430008F917F916F915F914F913F912F910F904D
:104440000FBE0F901F90189519BC109297020E94F2
:104450003F1D70CF8091E30087FD93E0909397021A
:10446000B3CF1F920F920FB60F9211242F933F9349
:104470004F935F936F937F938F939F93AF93BF936C
:10448000CF93DF93EF93FF93D091E900DF7080919A
:10449000EC00C82FC17080FDC0E81092E900809147
:1044A000F000877F8093F00078940E94752210922C
:1044B000E9008091F00088608093F000CD2BCF70F0
:1044C000C093E900FF91EF91DF91CF91BF91AF9140
:1044D0009F918F917F916F915F914F913F912F911C
:1044E0000F900FBE0F901F9018951F93CF93DF93DF
:1044F000CDB7DEB7AA970FB6F894DEBF0FBECDBF1B
:1045000088E992E02091F100FC012193CF01F2E0D3
:10451000803A9F07B9F70E945A1D8091E80083FFF7
:104520001EC180919802909199029A3008F017C1AB
:10453000E92FF0E0EB59FB4D0C94E323803899F020
:10454000823809F00CC180919C028F70873008F08E
:1045500006C18093E9008091EB0085FB882780F9F4
:104560001092E90006C080919402909195029111F9
:1045700082609091E800977F9093E8008093F1002B
:104580001092F1008091E8008E77E5C0882309F44D
:10459000D3C0823009F0E3C080919A028111D6C065
:1045A00080919C028F702FEF280F263008F0D7C023
:1045B0008093E9002091EB0020FFC8C0933031F4D4
:1045C0008091EB0080628093EB00C0C09091EB0083
:1045D00090619093EB0021E030E001C0220F8A95BA
:1045E000EAF72093EA001092EA008091EB008860DD
:1045F000EACF8111B4C010919A021F778091E30035
:104600008078812B8093E3008091E800877F8093FE
:10461000E8000E9492208091E80080FFFCCF80910A
:10462000E30080688093E30082E0111183E08093CF
:10463000970295C08058823008F091C080919A020C
:1046400090919B028C3D23E09207A1F583E08A8341
:104650008AE289834FB7F894DE01139620E03EE0AA
:1046600051E2E32FF0E050935700E49120FF03C0A4
:10467000E295EF703F5FEF708E2F90E0EA30C0F070
:10468000C7968D939D932F5F243159F74FBF80912B
:10469000E800877F8093E8006AE270E0CE0101962F
:1046A0000E94A11F8091E8008B778093E80057C09B
:1046B000C096E7CF60919C0270919D02AE014F5F62
:1046C0005F4F0E947F1EBC01892B09F448C0909166
:1046D000E800977F9093E80089819A810E94FF1FEC
:1046E000E1CF8038E1F58091E800877F8093E80092
:1046F000809193028093F10045CF811130C0909159
:104700009A02923060F58091E800877F8093E800FC
:10471000909393020E94922080919302882311F03B
:1047200084E005C08091E30087FDFACF81E08093AB
:1047300097020E94461D13C080919A02813079F43D
:1047400081E0933009F080E0809395021092E900B7
:104750008091E800877F8093E8000E9492208091FA
:10476000E80083FF0AC08091E800877F8093E8001B
:104770008091EB0080628093EB00AA960FB6F894CC
:10478000DEBF0FBECDBFDF91CF911F910895089579
:10479000CF93809197028823A1F0C091E900CF7058
:1047A0009091EC00892F817090FD80E8C82B1092C9
:1047B000E9008091E80083FD0E947522CF70C093CC
:1047C000E900CF910895EE0FFF1F0590F491E02DC1
:1047D00009946927962769277827872778270895D6
:1047E000F999FECF92BD81BDF89A992780B50895B9
:1047F000A8E1B0E042E050E00C942424262FF9997F
:10480000FECF92BD81BDF89A019700B4021639F02F
:104810001FBA20BD0FB6F894FA9AF99A0FBE089500
:104820000396272F0E94FF230E94FE23252F0E941C
:10483000FF23242F0C94FF230196272F0E94FF2390
:104840000C94FE23DC01CB01FC01F999FECF06C0DC
:10485000F2BDE1BDF89A319600B40D92415050403E
:10486000B8F70895F894FFCF5C09690990099C098D
:10487000A709B209B509B509B509FE09010AB809C0
:10488000BC09C409D109DE09E109E409F10969118A
:104890006911C111C11113129611961196112F129F
:1048A000BB12CA12CA122613961196112F13A01307
:1048B000A013A913A913AB13A913A913A913A01328
:1048C000A013B013A913A913B0139E22C622AF23BD
:0E48D000C622AF23F9221A23AF2371237D23C2
:1048DE00019F0100A0010AA0014A02881CD41C8B72
:1048EE001CD01CBE1C01E200E900EA00B500B600B7
:1048FE00B700CD008301CC008A0192019401210200
:10490E00230224022502260227022A02B300B40043
:10491E006F007000818283F4F5F6F73133323593F0
:10492E00946697C6340000000000E200E900EA0039
:10493E00B500B600B700CD008301CC008A0192010C
:10494E0094012102230224022502260227022A02B2
:10495E00B300B4006F0070008182834022321B05C9
:0A496E00C704E9046C048504A504E5
:00000001FF
